:100000000C9435010C9466010C9466010C94660105
:100010000C9466010C9466010C9466010C946601C4
:100020000C9466010C9466010C9466010C946601B4
:100030000C9466010C9466010C9466010C946601A4
:100040000C9466010C9466010C9466010C94660194
:100050000C9466010C9466010C9466010C944504A2
:100060000C9466010C940F040C94E5030C94660147
:100070000C9466010C9466010C9466010C94660164
:100080000C9466010C9466010C9466010C94660154
:100090000C9466010C9466010C9466010C94660144
:1000A0000C9466010C9466010C9466010C94660134
:1000B0000C9466010C9466010C9466010C94660124
:1000C0000C9466010C9466010C9466010C94660114
:1000D0000C9466010C9466010C9466010C94660104
:1000E0000C9466010C94D5020C9495010C94FF02BB
:1000F0000C94E3020C94DF020C94D9020C94BA0223
:100100000C94FE010C94C0020C94C8020C94FB02E7
:100110000C944B020C9468010C94F5020C94F102BF
:100120000C94FA020C94CF020C94B8010C94ED02DA
:100130000C9438060C94A4010C94C6010C94E702AC
:100140000C94C4020C94CC0200002100240027006F
:100150002A002D00300033000101000004010701D6
:100160000A0100002200250028002B002E0031008B
:10017000340002010000050108010B01000020000D
:100180002300260029002C002F003200000100006F
:10019000030106010901050505050705080808080A
:1001A000020202020A0A080804040404010101010F
:1001B000010101010303030303030303040707070A
:1001C0000C0C0C0C0C0C0C0C0202020206060606AF
:1001D000060606060B0B0B0B0B0B0B0B010210207C
:1001E000200808102040102040800201020108046D
:1001F0000201010204081020408080402010080401
:100200000201800402018040201008040201080459
:10021000020101020408102040800102040810209D
:10022000408000000A0B02090C0D0E0807030401B0
:1002300000000000000000000000000000000000BE
:10024000000000000000000000000000000012118B
:10025000100000000000000000000000000000008E
:100260000000000000000000380611241FBECFEF80
:10027000D1E2DEBFCDBF00E00CBF12E0A0E0B2E0F3
:10028000E2E2FDE000E00BBF02C007900D92A63154
:10029000B107D9F722E0A6E1B2E001C01D92AE3C61
:1002A000B207E1F711E0C5E3D1E000E006C0219715
:1002B0000109802FFE010E948706C433D10780E028
:1002C0000807A9F70E948F040C948F060C94000075
:1002D000AF92BF92CF92DF92EF92FF920F931F9354
:1002E000CF93DF936C017B018B01040F151FEB0192
:1002F0005E01AE18BF08C017D10759F06991D60149
:10030000ED91FC910190F081E02DC6011995892BAA
:1003100079F7C501DF91CF911F910F91FF90EF9079
:10032000DF90CF90BF90AF900895FC01538D448D26
:10033000252F30E0842F90E0821B930B541710F090
:10034000CF96089501970895FC01918D828D98179D
:1003500061F0A28DAE0FBF2FB11D5D968C91928D75
:100360009F5F9F73928F90E008958FEF9FEF0895A6
:10037000FC01918D828D981731F0828DE80FF11D6F
:10038000858D90E008958FEF9FEF0895FC01918D8A
:10039000228D892F90E0805C9F4F821B91098F7383
:1003A0009927089581E392E00E94C60121E0892BFC
:1003B00009F420E0822F0895FC01A48DA80FB92F25
:1003C000B11DA35ABF4F2C91848D90E001968F737D
:1003D0009927848FA689B7892C93A089B1898C919C
:1003E000837080648C93938D848D981306C00288EB
:1003F000F389E02D80818F7D80830895EF92FF92B5
:100400000F931F93CF93DF93EC0181E0888F9B8D37
:100410008C8D98131AC0E889F989808185FF15C0F1
:100420009FB7F894EE89FF896083E889F989808114
:100430008370806480839FBF81E090E0DF91CF91E3
:100440001F910F91FF90EF900895F62E0B8D10E005
:100450000F5F1F4F0F731127E02E8C8D8E110CC074
:100460000FB607FCFACFE889F989808185FFF5CFBF
:10047000CE010E94DC01F1CFEB8DEC0FFD2FF11DC1
:10048000E35AFF4FF0829FB7F8940B8FEA89FB89FC
:1004900080818062CFCFCF93DF93EC01888D88235A
:1004A000B9F0AA89BB89E889F9898C9185FD03C0D7
:1004B000808186FD0DC00FB607FCF7CF8C9185FFBC
:1004C000F2CF808185FFEDCFCE010E94DC01E9CF24
:1004D000DF91CF91089580E090E0892B29F00E9470
:1004E000D20181110E94000080E090E0892B49F048
:1004F00080E090E0892B29F00E94000081110E9489
:10050000000080E090E0892B49F080E090E0892BAA
:1005100029F00E94000081110E94000080E090E01C
:10052000892B49F080E090E0892B29F00E9400009F
:1005300081110C94000008958150823108F05AC056
:10054000E82FF0E08827E855FD4F8F4F0C94870681
:10055000C802CC02BA02C002C402FA02CF02D5021B
:10056000D902DF02E302E702ED02F102FA02F5022C
:10057000FB02FF02809180008F77809380000895B6
:10058000809180008F7DF9CF80918000877FF5CFAB
:1005900084B58F7784BD089584B58F7DFBCF80911E
:1005A000B0008F778093B00008958091B0008F7D68
:1005B000F9CF809190008F7780939000089580917B
:1005C00090008F7DF9CF80919000877FF5CF80914B
:1005D000A0008F778093A00008958091A0008F7D68
:1005E000F9CF8091A000877FF5CF809120018F7790
:1005F000809320010895809120018F7DF9CF809113
:100600002001877FF5CFCF93DF93282F30E0F901CA
:10061000EE5DFD4F8491F901E452FE4FD491F90152
:10062000EA56FE4FC491CC23A1F081110E949C0296
:10063000EC2FF0E0EE0FFF1FE458FE4FA591B491B0
:10064000EC91ED2381E090E009F480E0DF91CF911F
:10065000089580E090E0FACF1F93CF93DF93282F87
:1006600030E0F901EE5DFD4F8491F901E452FE4F57
:10067000D491F901EA56FE4FC491CC23A9F0162F6C
:1006800081110E949C02EC2FF0E0EE0FFF1FEE594B
:10069000FE4FA591B4918FB7F894EC91111108C059
:1006A000D095DE23DC938FBFDF91CF911F9108950A
:1006B000DE2BF8CFCF93DF9390E0FC01E452FE4FA6
:1006C00024918A569E4FFC0184918823D1F090E0BA
:1006D000880F991FFC01E85BFE4FA591B491FC01C6
:1006E000EE59FE4FC591D491623071F49FB7F894E2
:1006F0003C91822F809583238C93E8812E2B288335
:100700009FBFDF91CF9108958FB7F894EC912E2B76
:100710002C938FBFF6CF2FB7F89460911B02709186
:100720001C0280911D0290911E022FBF08958F928E
:100730009F92AF92BF920F931F93CF93DF93CDB74A
:10074000DEB7A1970FB6F894DEBF0FBECDBF19A2DA
:10075000423008F44AE08E010F5D1F4F842E912C29
:10076000B12CA12CA50194010E946506E62FB901C8
:10077000CA01EA3044F5E05DD801EE938D01232BE8
:10078000242B252B79F790E080E0109769F0FD018C
:1007900001900020E9F73197AF014A1B5B0BBD01C7
:1007A00081E392E00E946801A1960FB6F894DEBF43
:1007B0000FBECDBFDF91CF911F910F91BF90AF9032
:1007C0009F908F900895E95CD7CF1F920F920FB63C
:1007D0000F9211240BB60F922F933F934F935F9379
:1007E0006F937F938F939F93AF93BF93EF93FF93F9
:1007F00081E392E00E94DC01FF91EF91BF91AF9104
:100800009F918F917F916F915F914F913F912F9128
:100810000F900BBE0F900FBE0F901F9018951F9258
:100820000F920FB60F9211240BB60F922F938F9346
:100830009F93EF93FF93E0914102F09142028081F8
:10084000E0914702F091480282FD1DC090818091A5
:100850004A028F5F8F7320914B02821741F0E09123
:100860004A02F0E0EF5CFD4F958F80934A02FF91C2
:10087000EF919F918F912F910F900BBE0F900FBE14
:100880000F901F9018958081F2CF1F920F920FB694
:100890000F9211242F933F938F939F93AF93BF9306
:1008A00080911B0290911C02A0911D02B0911E022A
:1008B00030911A0223E0230F2D3758F50196A11D20
:1008C000B11D20931A0280931B0290931C02A093E7
:1008D0001D02B0931E028091160290911702A09102
:1008E0001802B09119020196A11DB11D8093160244
:1008F00090931702A0931802B0931902BF91AF9181
:100900009F918F913F912F910F900FBE0F901F904D
:10091000189526E8230F0296A11DB11DD2CF789419
:1009200084B5826084BD84B5816084BD85B58260F4
:1009300085BD85B5816085BD80916E0081608093A5
:100940006E0010928100809181008260809381000E
:10095000809181008160809381008091800081601E
:10096000809380008091B10084608093B100809179
:10097000B00081608093B00080919100826080938C
:10098000910080919100816080939100809190000E
:100990008160809390008091A10082608093A1008B
:1009A0008091A10081608093A1008091A00081606E
:1009B0008093A00080912101826080932101809129
:1009C00021018160809321018091200181608093C9
:1009D000200180917A00846080937A0080917A006F
:1009E000826080937A0080917A00816080937A009F
:1009F00080917A00806880937A001092C10062E052
:100A000087E30E945A0361E08CE00E945A0361E090
:100A10008BE00E945A0361E08CE00E942C0361E0AD
:100A20008BE00E942C03E0914102F091420282E0AF
:100A30008083E0913D02F0913E021082E0913F02FE
:100A4000F09140028FEC808310924902E0914502C0
:100A5000F091460286E08083E0914302F0914402E7
:100A6000808180618083E0914302F0914402808123
:100A700088608083E0914302F09144028081806825
:100A80008083E0914302F091440280818F7D8083D6
:100A900011E4C1E0D0E080917B00877F80937B00F0
:100AA00010937C0080917A00806480937A0080911A
:100AB0007A0086FDFCCF909178008091790089279B
:100AC00098278927C29764F50E948B03C0902D0256
:100AD000D0902E02E0902F02F09030026C197D0928
:100AE0008E099F096436710581059105C8F00E9441
:100AF0008B0360932D0270932E0280932F029093AC
:100B000030024AE061E070E080E090E00E949703EC
:100B100042E050E062E172E081E392E00E9468010D
:100B20008CE00E940303892B29F50E948B03C0905F
:100B30002902D0902A02E0902B02F0902C026C192E
:100B40007D098E099F09603177428105910590F0FA
:100B50000E948B036093290270932A0280932B02D8
:100B600090932C0261E08CE00E942C03D093280229
:100B7000C09327028BE00E940303892B29F50E9472
:100B80008B03C0902302D0902402E0902502F090C5
:100B900026026C197D098E099F0960317742810513
:100BA000910590F00E948B036093230270932402BE
:100BB000809325029093260261E08BE00E942C0333
:100BC000D0932202C093210281E392E00E94C601E9
:100BD000892B49F081E392E00E94A40190932002C6
:100BE00080931F02F1CF80911F02909120028033E9
:100BF000910559F4109228021092270261E08CE0CE
:100C00000E942C030E946B0246CF8133910541F470
:100C10008091270290912802892BA1F760E0EFCF05
:100C20008233910539F4109222021092210261E080
:100C30008BE0E6CF8333910541F4809121029091BE
:100C40002202892BF9F660E0F3CFC597D9F680919F
:100C5000210290912202892BA9F68091270290917E
:100C60002802892B79F660E08CE00E942C03EBCF00
:100C7000E1E3F2E01382128288EE93E0A0E0B0E0BC
:100C800084839583A683B78384E092E091838083F5
:100C900085EC90E09587848784EC90E09787868741
:100CA00080EC90E0918B808B81EC90E0938B828B39
:100CB00082EC90E0958B848B86EC90E0978B868B12
:100CC000118E128E138E148E0895A1E21A2EAA1B75
:100CD000BB1BFD010DC0AA1FBB1FEE1FFF1FA217EC
:100CE000B307E407F50720F0A21BB30BE40BF50BE9
:100CF000661F771F881F991F1A9469F76095709572
:100D0000809590959B01AC01BD01CF010895EE0F38
:100D1000FF1F881F8BBF0790F691E02D1994F89460
:020D2000FFCF03
:100D220000000000FE01680195014B02C601A4010A
:060D3200B8010D0A0000EB
:00000001FF
